:020000040800F2
:10000000A807002035020008EB330008552E000831
:10001000E9330008D31C0008CF35000800000000B9
:10002000000000000000000000000000EF330008A6
:10003000D51C000800000000ED330008F133000873
:100040004F0200084F0200084F0200084F0200084C
:100050004F0200084F0200084F0200084F0200083C
:100060004F0200084F0200084F0200084F0200082C
:100070004F0200084F0200084F0200084F0200081C
:100080004F0200084F0200084F0200084F0200080C
:100090004F0200084F0200084F0200084F020008FC
:1000A0004F0200084F0200084F0200084F020008EC
:1000B0004F0200084F0200084F0200084F020008DC
:1000C0004F0200084F0200084F0200084F020008CC
:1000D0004F0200084F0200084F0200084F020008BC
:1000E0004F0200084F0200084F02000800F002F81B
:1000F00000F090F80AA090E8000C82448344AAF132
:100100000107DA4501D100F085F8AFF2090EBAE82F
:100110000F0013F0010F18BFFB1A43F0010318473B
:1001200088470000A8470000103A24BF78C878C16B
:10013000FAD8520724BF30C830C144BF04680C60ED
:10014000704700000023002400250026103A28BF35
:1001500078C1FBD8520728BF30C148BF0B60704739
:100160006E2900F0E582702900F03F86662904F0D0
:10017000F081652904F0ED81672904F0EA816129A5
:1001800004F0E98103681B0A28BF41F08001692956
:1001900000F09282642900F08F82752900F08C8231
:1001A0006F2900F0CC85782900F00B86E92900F052
:1001B0006785E42900F06485F52900F06185EF2961
:1001C00000F0C985F82900F00A860368DB0928BF1A
:1001D00041F08001632901F07D80732901F0828064
:1001E000E32901F08D80F32901F09280002070470F
:1001F0001FB500F005FE04000020002103F0CAFE38
:10020000401C60600020002103F0AEFEE0601FBDD6
:1002100010B510BD01F016F91146FFF7E9FF03F024
:1002200005FC01F03DF903B4FFF7F2FF03BC01F058
:1002300081F900000948804709480047FEE7FEE7CA
:10024000FEE7FEE7FEE7FEE7FEE7FEE7FEE7FEE786
:1002500004480549054A064B70470000533400081E
:10026000ED000008A8010020A8070020A803002036
:10027000A803002010B54C1084EA530404D5404272
:10028000C1F1000138BF491E1B4204D55242C3F1DF
:10029000000338BF5B1E00F035F914F0804F04D026
:1002A0004042C1F1000138BF491E14F0004F04D094
:1002B0005242C3F1000338BF5B1E10BD7CB51D4622
:1002C00016460C00009001D02044401E074B7B4492
:1002D0002A4669460190304600F053FC05461CB1A1
:1002E0000020694600F060FC28467CBDE108000063
:1002F0000FB47CB50C0009AA009001D02044401E28
:10030000084B7B4469460190089800F03AFC05468A
:100310001CB10020694600F047FC28467CBC5DF813
:1003200014FB0000AD0800002DE9F05F894604468B
:100330004FF0000ADFF874B1FB44C0F820A020465B
:10034000E1688847002874D0252806D0D4E9012127
:100350009047206A401C2062F1E700265F46204655
:10036000E16888472028054607DB312D05D278193A
:1003700010F8200C08B10643F1E7B00701D526F0CC
:100380000406C4F81CA00027C4F818A02A2D09D020
:10039000284603F041F938B304EB8708303DC8F82C
:1003A000185019E059F8041B204604EB87029161AC
:1003B000E1688847012F054618D1E069002820DA56
:1003C00026F020061DE0D8F8180000EB800005EBB1
:1003D00040003038C8F818002046E16888470546D4
:1003E00003F01AF90028EED1012F0AD02E2D08D1E2
:1003F0002046E16888477F1C0546022F46F020060C
:10040000C4DBA069002803DA404246F00106A0617F
:10041000F00701D026F010066C2D0BD0682D09D006
:100420004C2D39D06A2D35D0742D35D07A2D33D05E
:1004300016E038E0E1682F4620468847B842054676
:1004400009D16C2F26D04FF48060E1680643204626
:100450008847054604E06C2F1AD04FF4807006439D
:100460000DB3A5F14100192802D8203546F40066E5
:100470004A462946204626604E46FFF771FE80B167
:1004800001280BD0F61D26F0070000F1080956E7F9
:100490004020E4E78020D8E70020D6E706F10409F1
:1004A0004DE7284652E7206ABDE8F09F2E43000042
:1004B0004FF0000200B5134694469646203922BFFD
:1004C000A0E80C50A0E80C50B1F12001BFF4F7AF48
:1004D000090728BFA0E80C5048BF0CC05DF804EB2A
:1004E000890028BF40F8042B08BF704748BF20F898
:1004F000022B11F0804F18BF00F8012B7047704796
:100500007047704753EA020C00F069802DE9F04B08
:100510004FF00006002B1FBFB3FA83F503FA05F472
:1005200024FA05F65E4012BF1643B2FA82F502FACB
:1005300005F4C5F120051EBF22FA05FC44EA0C04AF
:10054000203556EA044C4FEA144418BF641C4FF09F
:1005500000084FF00009904271EB030C39D30029D9
:1005600019BFB1FA81F701FA07F6B0FA80F700FA7D
:1005700007F6C7F120071EBF20FA07FC46EA0C0663
:100580002037B6FBF4FCA7EB0507103F07F01F0B65
:10059000CBF120060CFA0BFB2CFA06F644BFB3464F
:1005A0000026202FA4BF5E464FF0000B5BEA060C2E
:1005B00008BF4FF0010B19EB0B09ABFB027C48EBBA
:1005C0000608C01B06FB02CC0BFB03CC71EB0C0135
:1005D000C1E70B46024641464846BDE8F08B13B5DD
:1005E0004FF000004FF00001AFF30080BDE81C4069
:1005F000704770B5044685690068C10601D530268C
:1006000000E02026C00707D070BDD4E901213046A4
:100610009047206A401C20626D1EF6D570BD70B5F3
:10062000044685690078C00707D170BDD4E901216F
:1006300020209047206A401C20626D1EF6D570BDB8
:1006400009684A0501D540B27047C905FCD500B21A
:10065000704709684A0501D5C0B27047C905FCD585
:1006600080B2704770B50C460546012A05D028783F
:10067000800600D5EA69002302E0012305E05B1C47
:10068000934202D2E05C0028F9D1A869E618C01AAA
:10069000A861286A184428622846FFF7AAFF04E0E8
:1006A000D5E9012114F8010B9047B442F8D328464C
:1006B000FFF7B5FF70BD00002DE9F04106460024AC
:1006C00010687529314616A510D0FFF7B9FF00282C
:1006D00002DA404213A507E031688A0701D512A566
:1006E00002E0490704D511A5012401E0FFF7B1FF9D
:1006F00000210A2206F1240709E0B0FBF2FCB0FB5E
:10070000F2F302FB1C00303078541846491C0028D4
:10071000F3D123462A463046BDE8F04100F0B9BB8C
:10072000000000002D0000002B0000002000000051
:1007300011680268006A530501D508700AE0D30504
:1007400001D5088006E0130603D5C217C1E90002EF
:1007500000E008600120704770472DE9FF4F0C460C
:100760001E464FF0FF378BB0D2E90001DDF8608004
:100770000A908A46C1F30A5505B93D46002108464C
:100780004FF00000BAF1000F00F4400005DA00EB72
:1007900080004FF4400101EA50004FEA9059B9F14E
:1007A000010F00DDB9460A9850EA4A000ED044F61F
:1007B0001050A5F2FF3545432F14B8F1000F1ED09D
:1007C0007542291E1EDDC9F100021CE0B8F1010FBF
:1007D0004FF0000001D0302103E0F24305E0215446
:1007E000401CB042FBDB30460022002121540B9913
:1007F000C1F80880C1E900200FB0BDE8F08FBD1B33
:100800006D1CDEE74A4600DA694206A800F084FD66
:1008100006AB93E8070003AB83E8070050460A994C
:1008200000F08FFE8DE80700A0F500501F38009003
:100830000398002D0ADD42F21F014A4608440023B6
:1008400003A90390684601F0F8F809E0A0F500500C
:100850004A461F38002303A90390684601F002F9B5
:100860008DE807000004000C03D04FF0FF30410872
:1008700000E01046B8F1000F03D0002200921546A8
:100880001EE0751E05D400F0BFFA303262556D1EB1
:10089000F9D5B3460122084302D000227F1C04E0B0
:1008A0002078302801D100227F1E002A099784D0A9
:1008B0001DE0112D07DA00F0A7FA303262556D1CE9
:1008C00050EA0102F5D1084302D00098C8B10EE009
:1008D0000021681E05E0235C625C63542254401EC4
:1008E000491C8142F7DBAB46A81B401E0990002043
:1008F00004F80B000B98099AC0F80880C0E9002B97
:100900007AE711264FF0000857E72DE9F04F8846A7
:100910000446D21D22F0070191B0D1E90001CDE9D2
:100920000A0102F055FE02460B98C00F01D02D209F
:1009300007E02068810701D52B2002E0202101EA91
:10094000C000032A099001D0072A05DB034641466F
:10095000204600F075FC0BE12078800601D5E069A7
:1009600000E00620B8F1650F814606D0B8F1660FA9
:1009700018D0B8F1670F70D131E00020B9F1110F34
:10098000009001DB112301E009F101030AAA01A98A
:100990000CA8FFF7E2FEDDE90C70002609F1010565
:1009A000834647E001204B4600904FF000470AAADB
:1009B00001A90CA8FFF7D1FEDDE90DB00C995D4649
:1009C000002610B909F101000D18B9EB050003D498
:1009D000C0F1FF3609F10105A5EB09002BE0B9F1E3
:1009E000010F01DA4FF001090020B9F1110F009059
:1009F000484601DD112300E003460AAA01A90CA81C
:100A0000FFF7ABFEDDE90C704D46002683462078EB
:100A100000070AD4AB4500DA5D4601A8012D04DDCC
:100A2000411911F8011C302907D04F4502DA17F19E
:100A3000040F04DA012082460FE06D1EEEE7002F5E
:100A400002DCED1B3E4403E0781CA84200DD7D1C67
:100A5000B81B00F1010A4FF000472078000703D4CB
:100A6000AA4501DB4FF0FF3A0021B7F1004F0DF12D
:100A700043088DF8431024D002202B23002F01DAE5
:100A80007F422D230A21021EA0F1010000DC5FB18C
:100A900097FBF1FC97FBF1F201FB1C7C17460CF174
:100AA000300C08F801CDEEE7A8F1010003702188B1
:100AB000090501D5452100E06521A0F1010800F8F4
:100AC000011C09980FA9A1EB0807FF1D00B1012027
:100AD000411901EBEA70A1693844081A401EA0616F
:100AE0002078C00602D42046FFF783FD099828B17C
:100AF000D4E901219047206A401C20622078C0067A
:100B000022D52046FFF775FD1EE0002E04DBB3451D
:100B100002DD01A8805D00E03020D4E9012190478A
:100B2000206A401C2062761CAAF101005FEA000ADC
:100B30000AD100F065F9C0680168405CD4E9012180
:100B40009047206A401C2062281EA5F10105DCDCCC
:100B500007E0D4E9012118F8010B9047206A401CF6
:100B60002062381EA7F10107F3DC2046FFF757FD8E
:100B7000032011B041E6000001694A1C02610878B7
:100B8000704700B58FB0CDE90131002105910549CD
:100B90007944CDE9031011466846FFF7C5FB0FB055
:100BA00000BD0000E5FFFFFF0A6802F8010B0A60C4
:100BB0007047D1E900239A4202D2531C0B60107097
:100BC000704700002DE9FF5F15468A460446DFF8AE
:100BD000AC80F8440027D8E900103E46CDE900106B
:100BE00010E03AF816106A4602A800F007FC411C13
:100BF00007D02178890603D5E269391891420DD8CA
:100C00000744761C2078800602D5E069B84205DDED
:100C1000AE42E6DB3AF816000028E2D1A069C01B1C
:100C2000A0612046FFF7E5FCD8E90010CDE90010EF
:100C3000002017E03AF818106A4602A800F0DEFB20
:100C4000B0F1FF3F81460BD000250DF1080B05E008
:100C5000D4E901211BF8050090476D1C4D45F7D3E1
:100C600008F10100B0428046E4DB206A384420628B
:100C70002046FFF7D4FCBDE8FF9F0000A63A000025
:100C80002DE9F0418046D21D22F007020025D2E96D
:100C90000002F52915A614D0011E72F1000106DA32
:100CA0000023D0EB030063EB020211A608E0D8F8A2
:100CB00000108B0701D50FA602E0490701D50EA64B
:100CC00001251146002408F1240704E000F09CF8F7
:100CD00030323A55641C50EA0102F7D12B463246B5
:100CE00021464046BDE8F04100F0D3B800000000C6
:100CF0002D0000002B0000002000000030B4002177
:100D000000F1240408E002F00705D208303542EA79
:100D10004372DB086554491C52EA0305F3D10468A9
:100D2000002310A2250707D5A40600D421B1C46969
:100D300001230DA2641EC46130BC00F0AAB810B536
:100D4000044621461068FFF784FC02462046BDE8B1
:100D500010400023D2E7D21D22F00701D1E9002381
:100D6000CCE700000000000030000000F0B40D46A9
:100D70000188090502D5214C7C4402E01F4C7C44CB
:100D80000E34002100F1240608E002F00F071209DA
:100D9000E75D42EA03721B097754491C52EA0307D4
:100DA000F3D102780023120704D5702D06D009B1C3
:100DB000022311342246F0BC00F06BB8012310343A
:100DC000F8E770B504460D4621461068FFF741FC70
:100DD000024629462046BDE870400023C6E7D21DE2
:100DE00022F00703D3E90023C0E70368126843F049
:100DF000200303600823C3610023B7E7083900001C
:100E0000004870476401002030B5B0F10A024FEA93
:100E1000900E71F100034EEA817EB0EB0E0061EBA3
:100E200091014FEA101E4EEA017E10EB0E0041EBDD
:100E300011114FEA102E4EEA016E10EB0E0041EB3D
:100E400011214FEA104E4EEA014E10EB0E0041EB1D
:100E50001141401841F100014FEAD00040EA4170D1
:100E60004FEAD10110EB80054FEA810444EA907407
:100E700044EB01046D1944EB0404521BA3414FF0F1
:100E8000000348BF0A3200D530BD401C41F10001CB
:100E900030BD2DE9F0470D4699469246044600F1D3
:100EA00024080168880604D5E06921F0100121605A
:100EB00000E00120A84201DD471B00E00027A169F6
:100EC0007A1902EB0900081AA0612078C00602D442
:100ED0002046FFF78EFB002608E0D4E901211AF82E
:100EE00006009047206A401C761C20624E45F4DBC9
:100EF0002078C0060AD52046FFF77BFB06E0D4E940
:100F0000012130209047206A401C2062381EA7F142
:100F10000107F4DC07E0D4E9012118F80500904747
:100F2000206A401C2062281EA5F10105F3DC204642
:100F3000FFF775FB2078000602D50220BDE8F08798
:100F40000120FBE72DE9F04F04460D46D21D22F0AB
:100F5000070089B0D0E900974846394602F038FBCF
:100F60000246F80F01D02D2307E02068810701D544
:100F70002B2302E0202101EAC0038DF820300BB1C1
:100F8000012000E00020032A824601D0072A04DB6A
:100F90002946204600F054F93FE12078800601D42C
:100FA0000D2500E0E569C7F30A560D2D49DA002149
:100FB0004FEA175B08464FF00000002F00F4400096
:100FC00007DA00EB80004FF4400100EBD07001EA3B
:100FD00060008115012901DD4FF0FF3100224FEA49
:100FE000850CBCF1180F06D31346ACF118004FF076
:100FF0008052C24003E04FF4801323FA0CF30CF14B
:101000000C0CBCF1200F04D3ACF1200C09FA0CF04D
:1010100001E007FA0CF000294FF0004801DD18B993
:101020000FE00ED140450CD319EB02095F4121B905
:10103000404502D19F4329EA0209BBEB175F00D06C
:10104000761C2088000502D57B48784402E07A4867
:101050007844193808AA302302F80A30037C0AF1D0
:101060000101002E0AF1020A53546A4602DC4FF0D5
:10107000300101E04FF031014FF001088DF8001010
:1010800002D0A6F2FF3603E059EA470100D06B4ECA
:10109000002D02DC2178090704D54FF002082E212B
:1010A0008DF80110C44600210BE0C7F303433F0154
:1010B000C35C491C6D1E02F80830052908F10108BF
:1010C00001DA002DF1DC00210CE000EB1973491C62
:1010D0001B786D1E082902F808304FEA091908F13B
:1010E000010801DA002DF0DC21688B0602D516E03C
:1010F000A8F10108E04505DD02EB080313F8013C07
:10110000302BF5D0B8F1000F09DD02EB080313F81E
:10111000013C2E2B03D1090701D4A8F10108002DB1
:1011200005DD3E2102F808106D1E08F10108407C23
:10113000002E02F8080008F1010804DA2D2076429A
:1011400002F8080002E02B2002F808000A214FF400
:101150007A70864208F101080BDB96FBF0F330331E
:1011600002F8083096FBF0F308F1010800FB136663
:1011700001E0642E0CDB642096FBF0F3303302F8C0
:10118000083096FBF0F308F1010800FB136601E05C
:101190000A2E06DB96FBF1F0303002F8080008F169
:1011A000010896FBF1F001FB1060303002F80800F6
:1011B000A16908F1010808EB050202EB0A00081A10
:1011C000A0612078C00602D42046FFF712FA216AF7
:1011D00008AE01EB0A00206204E0D4E9012116F810
:1011E000010B9047BAF1010AF7D22078C00602D568
:1011F0002046FFF7FEF96E4609E016F8010B3E287F
:101200000FD0D4E901219047206A401C2062B8F138
:101210000108F2D22046FFF702FA09B00320BDE828
:10122000F08F206A2844206203E0D4E901213020B5
:1012300090476D1EEBD3F8E77136000002FCFFFF0C
:101240002DE9F0411F46044603260168072A01F4F0
:10125000006004DB08B116A505E016A503E008B19F
:1012600015A500E015A521F010002060A069C01EA2
:10127000A0610FB1401EA0612046FFF7BAF94FB13F
:10128000D4E9012138469047206A401C2062C01CE6
:10129000206206E0206AFAE7D4E9012115F8010B83
:1012A0009047761EF8D22046FFF7B9F9BDE8F081E5
:1012B0004E414E006E616E00494E4600696E6600FA
:1012C00010B5436913B1AFF3008001E0FFF7CAF92D
:1012D000012010BD127800F124010A7000224A702A
:1012E0000122EDE711684FF0FF32E9E710B54369DD
:1012F00013B1AFF3008001E0FFF764FC012010BDE3
:10130000128800F1240182840022C2840122EDE7C8
:1013100011684FF0FF32E9E72DE9F04781461646A4
:101320008AB0354878440DC88DE80D0032487844BD
:10133000801C03AC0DC884E80D0041F69B300844C6
:10134000372190FBF1F290FBF1F5A5F1800501FB4F
:1013500012041B3C02D56442012000E00020DFF8AB
:1013600098A080460027FA44AAF1BE0A0EE0E007E2
:101370000AD03246684607EB470101230AEB810198
:1013800000F070FB8DE8070064107F1C002CEED18C
:10139000194F7F44AE3F19E0E80715D007EB041062
:1013A0000DF1180A90E80E008AE80E00C068F042BD
:1013B00001D1981908903246012306A903A800F02C
:1013C00051FB03AB83E807006D10641C002DE3D1D3
:1013D0004FF0010332466946B8F1000F03A802D06E
:1013E00000F02BFB01E000F03DFBC9E90001C9F86A
:1013F00008200AB0BDE8F0872834000070B5164612
:101400000C46054600F044F8036893F801010128F2
:1014100006D0FF2C0FD8185D68B101202C7070BD6C
:10142000D3F807013246214603F207130344284646
:10143000BDE8704018474FF0FF3070BD004870475E
:10144000440100207546FFF7F9FFAE4605006946E6
:10145000534620F00700854618B020B5FEF7F8FE89
:10146000BDE820404FF000064FF000074FF00008A5
:101470004FF0000B21F00701AC46ACE8C009ACE826
:10148000C009ACE8C009ACE8C0098D46704700004F
:1014900010B5FFF7B5FC001D10BD00BFF92A000014
:1014A00010B50446AFF300802046BDE81040FEF7BB
:1014B000BABE00004FF0013C50F8042B51F8043B39
:1014C0009A4221D1A2EB0C03934313EACC1317D118
:1014D00050F8042B51F8043B9A4215D1A2EB0C03AF
:1014E000934313EACC130BD150F8042B51F8043B6F
:1014F0009A4209D1A2EB0C03934313EACC13DBD03D
:101500004FF00000704700BFD01A01BAB1FA81F164
:1015100001F0180122FA01F0CB40C1F12001DBB249
:10152000C0B2C01A2CFA01F3D11A914311EAC311C7
:10153000E6D1704701491820ABBEFEE72600020045
:1015400070475FEA400C08BF91F0000F4FEA8C2310
:101550004FEAC12243EA51514FEA1C5018BF00F52F
:10156000F0404FEA300018BF41F000415FEA6C5C88
:1015700000F02980BCF1FF3F08BF40F08040704779
:10158000130C06BF12044FF0100C4FF0000C130E9A
:1015900004BF12020CF1080C130F04BF12010CF16E
:1015A000040C930F04BF92000CF1020CD30F04BF84
:1015B00052000CF1010C11464FF00002A0F11F0087
:1015C000A0EB0C00704711F0004F08BF704731F0DE
:1015D00000413FF4D5AF0B0C06BF09044FF0100CCF
:1015E0004FF0000C0B0E04BF09020CF1080C0B0F9E
:1015F00004BF09010CF1040C8B0F04BF89000CF12E
:10160000020CCB0F04BF49000CF1010CCCF12003FC
:10161000A0EB0C0022FA03F302FA0CF241EA0301F8
:1016200000F10100704720F07F4C80EA030023F0B6
:101630007F47ACEB070303F57C5300F0004003F158
:10164000FF032DE980494FEA154B09B44FEA1443D3
:1016500025EA0B4E24EA03480FF2042606EB132773
:1016600049083E785FEA320203FB0667C7F50007C8
:1016700007FB06F64FEA54374FEAD64606F1020654
:1016800007FB066CCCF1005C4FEA1C472CEA074CC8
:1016900007FB06F40CFB06F504EB15464FEA96161D
:1016A00034BF00204FF000404FEAD13706FB07FC63
:1016B0004FEA1C4C0CFB0BF7D21B03FB0CF761EB46
:1016C00007010CFB0EF7B0EB074072EB17420CFB67
:1016D00008F734BFA2EB0742B2EB074261EB1741B8
:1016E0004FEA0C444FEA910706FB07FC4FEA1C4CFB
:1016F0000CFB0BF7B0EBC74072EB573203FB0CF758
:1017000034BFA2EBC742B2EBC74261EB57310CFBCF
:101710000EF7B0EBC70072EB57720CFB08F734BF43
:10172000A2EBC702B2EBC70261EB5771039F4FEA0E
:10173000816141EA921104EBCC044FEAD1374FEAC0
:10174000826206FB07FC42EA90124FEA80604FEA91
:101750001C4C0CFB0BF7D21B03FB0CF761EB0701D6
:101760000CFB0EF7B0EB074072EB17420CFB08F7CF
:1017700034BFA2EB0742B2EB074261EB17414FEADD
:101780008C554FEA910704EB9C2406FB07FC4FEABB
:101790001C4C0CFB0BF7B0EBC74072EB573203FB52
:1017A0000CF734BFA2EBC742B2EBC74261EB573133
:1017B0000CFB0EF7B0EBC70072EB57720CFB08F78F
:1017C00034BFA2EBC702B2EBC70261EB577115EB56
:1017D0004C254FEA816141EA92114FEA82624FEA59
:1017E000D13742EA901206FB07FC44F100044FEAAD
:1017F00080604FEA1C4C0CFB0BF7D21B03FB0CF771
:1018000061EB07010CFB0EF7B0EB074072EB1742E0
:101810000CFB08F734BFA2EB0742B2EB074261EBC7
:10182000174115EB1C154FEA813141EA92414FEA0D
:10183000823242EA90424FEA80304FEA0C7644F11D
:10184000000448EA03434EEA0B484FF0000EB2EBA7
:10185000080C71EB030724BF624639464EEB0E0EAF
:101860004FF0000B0018524149414BEB0B0BB2EB10
:10187000080C71EB03077BF1000B24BF624639466D
:101880004EEB0E0E4FF0000B0018524149414BEB4E
:101890000B0BB2EB080C71EB03077BF1000B24BFC1
:1018A000624639464EEB0E0E51EA020718BF46F06B
:1018B000010616EB0E7655F1000254F1000103D536
:1018C000BDE88901BDE80088BDE88901BDE80048A0
:1018D000B619524141EB0101A3F101037047808029
:1018E0007F7E7D7C7B7A797877767675747372717A
:1018F00071706F6E6E6D6C6C6B6A6A696868676632
:1019000066656464636362616160605F5F5E5E5DC3
:101910005D5C5C5B5B5A5A59595858575756565537
:1019200055555454535352525251515050504F4F99
:101930004F4E4E4D4D4D4C4C4C4B4B4B4A4A4A49E9
:10194000494948484847474747464646454545442C
:101950004444444343434342424242414141002BB9
:101960009C4630D477002BD01CB54FEA370703B420
:101970004FF010004FF01001BAF1000F06D0BCF18B
:10198000000FDCBF40F0080040F008014FF00000FD
:101990000FBCBDE810400BF1010BBBF1010F08BFFC
:1019A0005FEA170722BF12F1010211F101014FF0A6
:1019B000004143F1000300F0004043EA000070479B
:1019C000F9D35708D0E746EA064613F1400F4FEA2D
:1019D00016461FDD13F1200FDFBF16430A46002114
:1019E00020335B42BED0C3F1200746EA064602FA26
:1019F00007F74FEA164646EA0706C3F1200722FA20
:101A000003F201FA07F721FA03F14FF0000342EA6B
:101A10000702A7E746EA020646EA06464FEA1646E6
:101A200046EA0106BCBF46EA0646360C4FF0000304
:101A30004FF000024FF0000194E72DE9804C9A46E8
:101A4000934670B491E8380007C831EA400C48BFAB
:101A500034EA430C03D5FFF7E6FDFFF780FFF0BC47
:101A6000BDE8008C2DE9804C9A46934670B491E80D
:101A7000380007C810F0804F08BF13F0804F03D123
:101A800000F005F8FFF76BFFF0BCBDE8008C20F01C
:101A90007F4780EA030023F07F4C07EB0C03A3F59C
:101AA0007C5300F00040A3F1FE0392F0000F00F021
:101AB000B38095F0000F00F077802DE901494FEADF
:101AC00011404FEA144621EA004800FB06FC24EAD4
:101AD000064708FB06F607FB08F800FB07F718EBBC
:101AE00006484CEB164C4FEA124B18EB07484FEAEE
:101AF00015464CEB174022EA0B4E0BFB06FC25EA81
:101B000006470EFB06F607FB0EFE0BFB07F71EEB68
:101B1000064E4CEB164C4FF000061EEB074E4CEBFE
:101B2000174B18EB0B0840F1000018EB0E0B58EBAD
:101B3000000840F100008F1A4FF000013CBFC9437C
:101B4000661B14BFB5EB040C00213CBFC943F61B58
:101B50004FEA17444EEA8E0E27EA04454FEA1C4727
:101B600004FB07622CEA074C05FB07F70CFB05F6A4
:101B700004FB0CFC16EB074642EB174216EB0C4637
:101B800042EB1C421BEB060658EB0202414146EABF
:101B90009E0601D5BDE80189B619524141EB01010C
:101BA000A3F10103BDE801894FEA14454FEA11474B
:101BB00024EA054621EA074C05FB07F406FB07F774
:101BC0000CFB06F105FB0CFC11EB074144EB174441
:101BD0004FEA124711EB0C4144EB1C4422EA074C3C
:101BE00005FB07F206FB07F70CFB06F605FB0CFCF2
:101BF00016EB074642EB174216EB0C4642EB1C4530
:101C00006A1854F1000148BF7047B619524141EBC0
:101C10000101A3F10103704795F0000F37D04FEA9F
:101C200011424FEA144721EA024624EA074C02FB1C
:101C300007F106FB07F70CFB06F402FB0CFC14EBA8
:101C4000074441EB17414FEA154714EB0C4441EBB5
:101C50001C4125EA074C02FB07F506FB07F70CFBC6
:101C600006F602FB0CFC16EB074645EB174516EB98
:101C70000C4645EB1C42121951F1000148BF704758
:101C8000B619524141EB0101A3F1010370474FEA3C
:101C900014454FEA114724EA054621EA074C05FBA3
:101CA00007F106FB07F70CFB06F24FF0000605FBF9
:101CB0000CFC12EB074241EB174112EB0C4251EBCB
:101CC0001C4148BF7047921841EB0101A3F1010389
:101CD0007047FEE7704772B6FEE7000070B5044635
:101CE00000F008F90546601C02D00448007804445E
:101CF00000F000F9401BA042FAD370BD1000002094
:101D00002DE9F84FDFF8B8910024A9F1040B234620
:101D10000F2709F1040AABF1040EC9E00125A54023
:101D20002A40AA427DD1674ED1F804C0ACEB060828
:101D3000B44532D014DCBCF1030F3AD009DCBCF15D
:101D4000000F2AD0BCF1010F1CD0BCF1020F31D121
:101D50001DE0BCF1110F17D0BCF1120F2AD119E010
:101D6000B8F5881F19D006DCB8F5803F15D0B8F556
:101D7000801F1FD111E0B8F5001F0ED0B8F5041F69
:101D800018D10AE0CB6815E0CB681B1D12E0CB68C8
:101D900008330FE0CB680C330CE08B682BB1012BC0
:101DA0004FF0080303D0456104E0042302E005611D
:101DB00000E00023FF2A01D8064601E000F10406F6
:101DC0004FEA840501D9A5F12005D6F8008007FA6D
:101DD00005FC28EA0C0803FA05F548EA0508C6F8E8
:101DE00000804D68ED0062D5374DAE6946F00106C2
:101DF000AE61AD6924F0030605F001050095334D91
:101E000006EB050CDCF80850A607360F07FA06F8B3
:101E100025EA0805DFF8B880404503D14FF00008F7
:101E200017E044E0DFF8AC80404502D14FF00108F4
:101E30000FE0DFF8A480404502D14FF0020808E02F
:101E4000DFF89880404502D14FF0030801E04FF0E1
:101E5000040808FA06F848EA0508CCF808804D6836
:101E6000D9F80060ED024D4601D5164300E09643D7
:101E70002E604D68DAF80060AD02554601D5164374
:101E800000E096432E604D68DBF80060AD035D46D0
:101E900001D5164300E096432E604D68DEF80060E1
:101EA000ED03754601D5164300E096432E60641C91
:101EB0000D682A46E5407FF431AFBDE8F88F000099
:101EC0000804014000001110001002400000014011
:101ED00000080140000C01400010014000140140C6
:101EE0008068084000D0012070470AB10161704746
:101EF0000904FBE7014880687047000010000020DB
:101F0000006C704770B5040025D094F83D000025A2
:101F100020B984F83C50204600F034FB242084F89B
:101F20003D002068016821F001010160206801681E
:101F300041F4004101602068016821F40041016022
:101F400000F06EFC4D4A6168914201D84C4900E0B6
:101F50004C49884201D2012070BD4B492368B0FB37
:101F6000F1F15E6826F03F060E435E6063689342BF
:101F700006D94FF4967359434FF47A73B1FBF3F1DA
:101F80002368491C1E6A26F03F06314319626168C6
:101F9000914210D84900401EB0FBF1F2521CC2F32E
:101FA0000B02042A01D2042022E0B0FBF1F0401C15
:101FB000C0F30B001CE0A268F2B301EBC10303EB1A
:101FC0000116431EB3FBF6F35B1C43F480431B0571
:101FD00049D092B301EBC10202EB0111401EB0FBEC
:101FE000F1F0401CC0F30B0040F4804040F400408E
:101FF0002168CA694CF6FF739A431043C861D4E95B
:10200000071001432068026822F0C00211430160FA
:10201000D4E9030101432068826848F2FF339A4300
:1020200011438160D4E9050108432168CA6822F0A0
:10203000FF021043C86001E00EE016E0206801686E
:1020400041F0010101602564202084F83D002563F2
:1020500084F83E50002070BD01EB4106431EB3FBE7
:10206000F6F35B1CB3E70120C2E701EB4101401E20
:10207000B0FBF1F0401CC0F30B00B7E7A0860100F5
:1020800080841E0000093D0040420F002DE9FF4FF3
:1020900081B089460446FFF72DFF054694F83D00C0
:1020A0004FF0000820287DD11923012250492046F5
:1020B000009500F0E5FF002874D194F83C00012859
:1020C00070D0012084F83C0020680168C90703D162
:1020D000016841F0010101602068016821F400619C
:1020E0000160242084F83D00002626644148E06217
:1020F0004FF0011B20272068016841F480710160C6
:102100000095002259462046049B00F0B9FF50B1CB
:1021100020680068C00502D54FF4007020640320D9
:1021200005B0BDE8F08F216809F0FE000861FFF7F7
:10213000E1FE2168054648694969C0F34000C1F3E2
:1021400080214FF0A00A0FE0FFF7D4FE411B049856
:10215000814200D808B984F83DA0216848694969DE
:10216000C0F34000C1F3802194F83D20A02A02D0A2
:1021700008B90029E8D084F83D7020684169C94356
:10218000890716D4016841F4007101602068416933
:1021900080691923012216492046009500F070FF3E
:1021A000B8B900E021E084F83D7084F83C6000207C
:1021B000B6E7016841F40071016021686FF4806046
:1021C0004861192301220A492046009500F058FF72
:1021D00008B10120A4E7039808F1010880458AD3DB
:1021E00084F83D7084F83C60F3E7022098E7000033
:1021F000020010000000FFFF2DE9FF4F83B0002513
:10220000DDE910799A4693460446DDF8488000954A
:10221000FFF770FE064694F83D0020287CD1192374
:10222000012288492046009600F02AFF0028F5D1B7
:1022300094F83C0001286FD0012084F83C0020680D
:102240000168C90703D1016841F0010101602068FC
:10225000016821F400610160222084F83D004020E3
:1022600084F83E0025646762A4F82A90608D20857A
:102270007548E062CDE9008653465A4620460499E7
:1022800000F000FE00287CD1208DDFF8C0912027CF
:1022900068B1012814D00228206801681ED041F4DA
:1022A000806101602068416980690090BCE020681D
:1022B000416981690091016841F400710160B3E0F6
:1022C0002068016821F48061016072B6206841696C
:1022D00081690091016841F400710AE041F40061F4
:1022E000016072B62068416981690091016821F43A
:1022F0008061016062B697E0032865D801280CD0A0
:10230000022843464FF000024946204600960BD073
:1023100000F0B6FEA8BB0CE091E0324641462046F4
:1023200000F054FF68BB72E000F0AAFE48BB72B632
:1023300033E02068016821F48061016072B6206892
:102340000069616A0870606A401C6062208D401EEE
:102350002085608D401E60853D4846F2A8110068CA
:10236000B0FBF1F0C0EBC00000EB80000090401E1D
:10237000009007D020684069C04340070DD5009801
:10238000F5E727E044F8305F6773A573206940F0F4
:102390002000206162B625731CE02068016841F4CA
:1023A0000071016020680069616A0870606A401C01
:1023B0006062218D491E2185618D491E618562B64D
:1023C00021680969017026E032464146204600F046
:1023D000FDFE18B1012007B0BDE8F08F206800694C
:1023E000616A0870606A401C6062208D401E81B284
:1023F0002185608D401E608520684269D243520766
:1024000012D4032903D1016821F48061016020689E
:102410000069616A0870606A401C6062208D401E1D
:102420002085608D401E6085208D00287FF464AF7C
:1024300084F83D7084F83E5084F83C50CBE702208D
:10244000C9E70000020010000000FFFF04000100C7
:102450001C0000202DE9FF4F83B09A46DDE911975B
:1024600093460446DDF84080FFF744FD054694F8A6
:102470003D0020287FD119230122404920460095A4
:1024800000F0FEFD002876D194F83C00012872D0BF
:10249000012084F83C0020680168C90703D1016865
:1024A00041F0010101602068016821F400610160D0
:1024B000212084F83D00402084F83E000026266458
:1024C000C4F82480A4F82A90608D20852C48E0620E
:1024D000CDE9007553465A462046049900F050FD58
:1024E00070B930E02A463946204600F0A7FE58B1C0
:1024F000206C042804D12068016841F40071016057
:10250000012007B0BDE8F08F606A2168007808619B
:10251000606A401C6062218D491E89B22185628DEE
:10252000521E628522685369DB435B070BD469B195
:1025300000781061606A401C6062208D401E20851A
:10254000608D401E6085208D0028CBD12A463946FB
:10255000204600F069FD0028CAD154F83D0B0168FF
:1025600041F400710160202004F81E09E6776677C7
:102570000020C6E7FFE70220C3E7000002001000CA
:102580000000FFFF10B586B000210091019102917B
:10259000039100680F4988421AD10F4CA06940F09E
:1025A0000800A061A069694600F008000490C020FE
:1025B000009012200190032003900848FFF7A0FB31
:1025C000E06940F40010E061E06900F4001004905C
:1025D00006B010BD0054004000100240000C014045
:1025E0000248816802781144816070471000002021
:1025F000074810B5016841F010010160032000F0A8
:1026000067F80F2000F006F800F024F8002010BD55
:102610000020024070B50D4D04464FF47A712878C1
:10262000B1FBF0F00A490968B1FBF0F000F0CEFA16
:1026300048B9102C07D200222146501E00F028F87D
:1026400000206C6070BD012070BD000010000020F3
:102650001C0000200C4808B5816941F0010181612E
:10266000816901F001010091C16941F08051C161AE
:10267000C06900F0805000900448416821F0E0619A
:1026800041F00071416008BD0010024000000140AF
:10269000F0B40E4B1B680C46C3F30223C3F10705CD
:1026A000042D00D90425191D072901D2002300E0BB
:1026B000DB1E012606FA05F1491E214099409E4085
:1026C000761E16403143F0BC00F096BF0CED00E0E2
:1026D000064900F0070208684FF6FF03184040EA79
:1026E0000220034A10430860704700000CED00E030
:1026F0000000FA052DE9F0470F46050061D0434E72
:10270000306800F00700B84209D2306820F00700B6
:1027100038433060306800F00700B84251D1286873
:102720003B4C810712D5400703D5606840F4E06058
:1027300060602878000703D5606840F460506060EE
:102740006068A96820F0F000084360602878C0073E
:1027500028D06868012810D02168022810D0890785
:1027600000292EDA616821F0030101436160FFF75F
:10277000C1FB804641F288390DE021688903EFE70B
:102780008901EDE7FFF7B6FBA0EB0801494502D947
:102790000320BDE8F0876068696800F00C00B0EBCA
:1027A000810FEFD1306800F00700B8420BD93068D4
:1027B00020F0070038433060306800F00700B8426E
:1027C00001D00120E5E72878400705D56068E96871
:1027D00020F4E060084360602878000706D5606850
:1027E000296920F4605040EAC100606000F038F8C8
:1027F0006168084AC1F30311515CC840064908608A
:1028000006480068FFF706FF0020C2E700200240EC
:1028100000100240524600081C0000201400002056
:102820000448054900684968044AC1F30221515C23
:10283000C84070471C00002000100240624600089B
:102840000448054900684968044AC1F3C221515C43
:10285000C84070471C00002000100240624600087B
:102860000E4A51680E4801F00C03042B11D0082BBE
:102870000FD10C48C1F38343C903C05C0AD551682A
:10288000084AC1F34041921E515C054A5043B0FBD7
:10289000F1F07047044948437047000000100240BF
:1028A00000127A004246000800093D002DE9F84F69
:1028B000040070D02078C04DC00749D06868C0F3CC
:1028C0008100012807D06868C0F38100022809D17F
:1028D0006868C00306D52868800339D56068002879
:1028E000E7D035E06068B0F5803F0BD010B1B0F5AF
:1028F000A02F11D0286820F480302860286820F4A8
:10290000802002E0286840F480302860606890B140
:10291000FFF7F0FA06460AE0286840F480202860B5
:10292000F0E700BFFFF7E6FA801B642873D8286839
:102930008003F7D50CE0FFF7DDFA064605E000BF9F
:10294000FFF7D8FA801B6428F0D828688003F7D4F2
:1029500020789A4E80074FF001094FF0000839D5D2
:10296000686810F00C0F07D06868C0F38100022877
:1029700009D16868C00306D42868800714D5206987
:10298000012808D110E02069B0B1C6F80090FFF727
:10299000B1FA074605E00AE1FFF7ACFAC01B0228CE
:1029A000C4D828688007F7D52868616920F0F80046
:1029B00040EAC10028600DE0C6F80080FFF79AFAEF
:1029C000074604E0FFF796FAC01B022823D82868C0
:1029D0008007F7D4207800072CD57948A169D9B1B0
:1029E000C0F80090FFF786FA074604E0FFF782FA86
:1029F000C01B02280FD8686A8007F7D571484FF4CA
:102A0000FA510068B0FBF1F0009000BF0098411E41
:102A10000091FAD20EE080E0C0F80080FFF76AFA79
:102A2000074604E0FFF766FAC01B022875D8686AFB
:102A30008007F7D42078400760D5E8690027C000F8
:102A400008D4E86940F08050E861E869012700F0A7
:102A5000805000905C480168C90513D40168834622
:102A600041F480710160FFF745FA824606E000BF3D
:102A7000FFF740FAA0EB0A0064284ED8DBF800000C
:102A8000C005F5D5E06801280AD008B1052813D0A3
:102A9000286A20F001002862286A20F0040002E081
:102AA000286A40F001002862E06841F2883B98B152
:102AB000FFF720FA82460BE0286A40F00400286203
:102AC000EEE700BFFFF716FAA0EB0A0159455AD806
:102AD000286A8007F6D50CE0FFF70CFA824605E07D
:102AE000FFF708FAA0EB0A0159454CD8286A80077D
:102AF000F6D41FB1E86920F08050E861E06988B33E
:102B00006968C1F38101022944D00228C6F86080B7
:102B100004D0FFF7EFF9044638E034E0FFF7EAF9B4
:102B2000074604E0FFF7E6F9C01B02282BD8286807
:102B30008001F7D4206AB0F5803F05D16868A168AC
:102B400020F4003008436860D4E90801084369684C
:102B500021F4741108436860C6F86090FFF7CAF961
:102B6000044606E025E000BFFFF7C4F9001B022879
:102B700009D828688001F7D51BE000BFFFF7BAF934
:102B8000001B022802D90320BDE8F88F28688001C5
:102B9000F4D40EE00128F7D06868226A00F480318E
:102BA000914204D1616A00F47010884201D0012082
:102BB000EAE70020E8E7000000100240000042427F
:102BC000800442421C0000200070004010B5401EEE
:102BD000B0F1807F01D3012010BD4FF0E02460618F
:102BE0000F21601700F008FD0020A0610720206180
:102BF000002010BD70B5040004D094F841000025F9
:102C000010B106E0012070BD84F84050204600F06D
:102C100023F8242084F841002068C16821F4005181
:102C2000C160204600F03EFC2068016921F490411B
:102C300001612068416921F02A0141612068C16871
:102C400041F40051C1606564202084F8410084F89B
:102C500042006563002070BD70B586B0002400940A
:102C6000019402940394234E036823490220032213
:102C7000224DB34219D18B6943F480438B618B6938
:102C800003F4804304938B6943F004038B618969E7
:102C9000039201F0040104910102CDE9001069469C
:102CA0002846FFF72DF828151BE0154EB3421FD11B
:102CB000CB6943F40033CB61CB6903F40033049355
:102CC0008B6943F004038B618969039201F004016D
:102CD00004910421CDE9001069462846FFF710F859
:102CE0000820CDE90004694628460294FFF708F859
:102CF00006B070BD003801400010024000080140DD
:102D0000004400402DE9F84F044690F842009A46EE
:102D100016460D46202802D00220BDE8F88FB5B136
:102D2000AEB100206064222184F842102063FFF7D6
:102D3000E1F8A6858146E685A0684FF480582027F3
:102D4000404501D1206920B12E46002529E001200F
:102D5000E3E7002625E04B46002220212046CDF85F
:102D600000A000F0FBFB18B184F842700320D4E708
:102D700026B1A06840451AD038B108E02068406804
:102D8000C0F3080025F8020B08E0206978B120683C
:102D9000406800F07F0000BF06F8010BE08D401E88
:102DA000E085E08D0028D6D184F84270B5E7206830
:102DB0004068F1E72DE9F843044690F84100984651
:102DC00016460D46202802D00220BDE8F88385B1C2
:102DD0007EB100206064212084F84100FFF78AF86A
:102DE000A6848146E684A0682027B0F5805F02D0E3
:102DF00003E00120E9E7206910B12E4600250EE02E
:102E000000260CE08021204600F0A8FBA8B9C6B13E
:102E100016F8010B21684860E08C401EE084E08CCD
:102E20004B464FF00002CDF800800028EAD14FF069
:102E30004001204600F092FB40B184F8417003202D
:102E4000C3E735F8020BC0F30800E3E784F84170EC
:102E50000020BAE7FEE701684A69D24352050FD461
:102E60006FF480624A61002140F8301F20224273D3
:102E70008173026942F0040202610173012070470C
:102E8000002070472DE9F84F0446006889460B9DE5
:102E900001689846174641F4806101602068016826
:102EA00041F48071016000954FF0011B00225946EA
:102EB00020460A9B00F0E4F84FF4007A40B1206805
:102EC0000068C00501D5C4F840A00320BDE8F88F14
:102ED000216809F0FE0008612B46284920460A9A1D
:102EE00000F016F9F0BB20684169806900902A461D
:102EF00020460A9900F0A2F940B1206C04283AD18A
:102F00002068016841F40071016034E0FEB2B8F15C
:102F1000010F09D02168380A08612A4620460A991B
:102F200000F08CF90028E8D1206806612A46204686
:102F30000A9900F083F90028DFD12068016841F484
:102F40008071016000950022594620460A9B00F0DE
:102F500097F80028B3D1216809F0FF0040F0010084
:102F6000086100E007E02B46044920460A9A00F079
:102F7000CFF80028AAD00120A8E700000200010035
:102F80002DE9F843044600680D46DDE9089701681D
:102F90009846164641F4807101604B4600224FF07E
:102FA00001112046009700F06BF848B120680068D6
:102FB000C00502D54FF4007020640320BDE8F883FB
:102FC000216805F0FE0008613B464A461549204647
:102FD00000F09EF888B920684169806900903A46FF
:102FE0004946204600F02AF948B1206C042804D153
:102FF0002068016841F4007101600120DEE7F5B24C
:10300000B8F1010F09D02168300A08613A464946F3
:10301000204600F013F90028E7D120680561002060
:10302000CCE700000200010070B516460D460446CC
:103030001EE02046FFF70FFF08B1012070BD681C9D
:1030400016D0FEF757FF801BA84200D885B920682C
:103050004069C04340070BD5002044F8300F2021C1
:103060006173A073216941F0200121612073E4E7BD
:1030700020684069C0434007DBD4002070BD0000D9
:103080002DE9F047984617460D460446C1F307461A
:10309000DDF820902AE000BFB8F1FF3F26D0FEF710
:1030A00029FFA0EB0901414502D8B8F1000F1DD15D
:1030B0002068012E16D0806925EA00000004000C6B
:1030C00012D00020B84211D1002044F8300F202146
:1030D0006173A073216941F02001216120730120F7
:1030E000BDE8F0874069E7E70120EBE72068012EA3
:1030F0000AD0806925EA00000004000C06D00020F8
:10310000B842C9D00020EBE74069F3E70120F7E7B8
:103110002DE9F047984616460D4604464FF0000943
:103120004FF0200AC1F3074723E020684069C043FD
:10313000400515D42068016841F4007101602168E0
:103140006FF480604861C4F8309084F83DA084F842
:103150003E90216C41F00401216484F83C9021E010
:10316000701C06D0FEF7C6FEA0EB0800B04203D8E4
:1031700016B1012F1FD021E02068012F15D08069E2
:1031800025EA00000004000C18D000BF44F8309F6E
:1031900084F80DA084F80E90216941F0200121618E
:1031A00084F80C900120BDE8F087406925EA000012
:1031B0000004000CEAD12068406901E020688069C1
:1031C00025EA00000004000CAFD1ECE72DE9F04146
:1031D000002590460E460446202728E04069C0435B
:1031E000C0060CD454F8301B6FF01000486144F84E
:1031F00010596777A577206A2062257714E0FEF7DB
:1032000079FEA0EB0800B04200D886B9206840697A
:10321000C04340060BD544F8305F6773A57320693F
:1032200040F02000206125730120BDE8F081206876
:103230004169C9434906D1D40020F6E770B5164666
:103240000D4604461EE02046FFF705FE08B10120AA
:1032500070BD681C16D0FEF74DFE801BA84200D83A
:1032600085B920684069C04300060BD5002044F8AA
:10327000300F20216173A073216941F02001216189
:103280002073E4E720684069C0430006DBD40020D7
:1032900070BD000070B586B00024244800940194ED
:1032A00002940394816941F010018161816901F008
:1032B00010010491816941F020018161816901F06F
:1032C00020010491816941F004018161816901F06B
:1032D00004010491816941F0080181618069144E03
:1032E00000F008004FF48065049000222946304623
:1032F000FEF7FBFD03210091019169460D48FEF7A1
:10330000FFFC0120CDE900500220039069463046C1
:10331000FEF7F6FC4FF4C050CDE900046946304694
:103320000294FEF7EDFC06B070BD000000100240F4
:10333000000C0140000801400D4810B50B49016028
:103340000C49416000214FF480428160C0E90312C2
:1033500041618161C1610162FEF7D4FD002803D0A3
:10336000BDE81040FEF7B7BC10BD0000005400409F
:1033700060000020A08601000C4810B50A490160D9
:103380004FF4E1314160002181600C22C160C0E94D
:1033900004128161C161FFF72DFC002803D0BDE854
:1033A0001040FEF798BC10BD00380140B40000206A
:1033B0000C4810B50A4901604FF4165141600021D4
:1033C00081600C22C160C0E904128161C161FFF714
:1033D00011FC002803D0BDE81040FEF77CBC10BDF6
:1033E00000440040FC000020FEE7FEE77047704705
:1033F000FFF7F6B830B58FB028216846FDF758F8CA
:1034000014210AA8FDF754F801210804CDE90010A1
:103410000024029402250491CDE907504FF4E010F6
:1034200009906846FFF742FA08B172B6FEE70F202E
:10343000CDE90A054FF48060CDE90C4002210AA8CD
:103440000E94FFF757F9002801D072B6FEE70FB0CF
:1034500030BD704701680C3151E8002F22F49072A2
:1034600041E80023002BF5D10168143151E8002F09
:1034700022F0010241E80023002BF5D1016B012964
:1034800009D101680C3151E8002F22F0100241E807
:103490000023002BF5D1202180F842100021016388
:1034A0007047000070B5044600680169E26821F4C5
:1034B0004051114301612169A068084361690843D3
:1034C0002168CA6841F20C639A430243CA602068CB
:1034D0004169A26921F44071114341611E4920688C
:1034E000884202D1FFF7ACF901E0FFF799F900EB50
:1034F000C00101EB0012606864218000B2FBF0F3B0
:10350000B3FBF1F36FF018067343B2FBF0F5B2FBB7
:10351000F0F605EB8305322303EB0515B5FBF1F55A
:10352000B6FBF1F605F0F00505EB0615B2FBF0F67B
:10353000B2FBF0F0B0FBF1F06FF01802504306EB75
:10354000800003EB0010B0FBF1F0216800F00F00E9
:103550002844886070BD0000003801402DE9F84320
:10356000984617460D460446089E24E0701C22D05B
:10357000FEF7C0FCA0EB0800B0421AD8CEB120681C
:10358000C168490717D5802D15D0402D13D001688B
:10359000C94309070FD40168002540680090204600
:1035A000FFF758FF0820606484F840500120BDE810
:1035B000F8830320FBE72068006835EA000004D0A8
:1035C0000020B842D2D00020F1E70120F9E7FEE761
:1035D000490050EAC12018BF04204A0D18BF40F02E
:1035E000010040F2FF72B2EB515F08BF40F00200F1
:1035F000012808BF052070470907090E002804DBD1
:1036000000F1E02080F80014704700F00F0000F196
:10361000E02080F8141D704730380A2801D20120BC
:10362000704700207047000038B51748816941F4A1
:10363000007181618169154A01F4007100910021D6
:103640001160141D2160114A3F210C321160416844
:1036500021F4404141F400414160206840F0010004
:1036600020600120FEF73AFB206840F0080020604F
:1036700020680007FCD4206840F004002060206827
:103680004007FCD438BD0000001002400424014073
:103690000D4A00211160121D1160121D10600A4AAE
:1036A0002C3A116008482438016841F0010101609A
:1036B000016841F48001016010688007FCD5024870
:1036C0002030006880B270472C240140B0F5004FD4
:1036D00002DB47F6FF7070470349884201DA08466B
:1036E000704700B2704700000080FFFF0FB44FF436
:1036F000807100B5C1B043AB6846429AFCF7DEFD6D
:10370000002808DDFF2800DDFF2082B2642369461F
:103710000248FFF74FFB41B05DF814FBB4000020F6
:10372000F8B501221A4F002594022146384600952B
:10373000FEF7DBFB0120FEF7D1FA002221463846D6
:10374000FEF7D3FB4FF4FA70FEF7C8FA114E0024CF
:10375000684600F051F850B1641CE4B2042CF7D371
:103760000120B07004210CA0FFF7C0FFF8BDB570B8
:103770004FF400613846FEF7B3FB012805D0002264
:10378000611C0FA0FFF7B2FFF8BD0122F8E70000AF
:10379000000C0140000000205B48583731305D20AC
:1037A0007265616479206166746572202575207385
:1037B0006574746C652073616D706C65730D0A00BF
:1037C0005B48583731305D20736574746C652074C4
:1037D000696D656F757420737465703D257520641F
:1037E0006F75743D2575206166746572207265730E
:1037F00065740D0A000000002DE9F04781460024A1
:103800004FF49668FEF776FB06464FF40065234FAB
:1038100008E000BFFEF76EFB811B414502D300208C
:10382000BDE8F08729463846FEF75AFB0128F1D05B
:10383000A8463D4600264FF48067012239462846B7
:10384000FEF753FB00F02CF841462846FEF748FBF4
:10385000012800D0002040EA4404002239462846CE
:10386000FEF743FB00F01CF8761CF6B2182EE4D3EA
:10387000012239462846FEF738FB00F011F80022F5
:1038800039462846FEF731FB00F00AF8200201D540
:1038900044F07F440120C9F80040C1E7000C01401A
:1038A00008B50020009000BF401C00903028FAD3DB
:1038B00008BD0000F8B500258DF80050184C194ED1
:1038C00024E000BF9DF800100D291FD0E0780A29E0
:1038D00005D03F2814D23154401CE07016E0A8B146
:1038E00035544FF480511048FEF7FAFA012805D0FC
:1038F00000210C4A0DA0FFF7F9FE06E00121F8E7D0
:10390000355408490FA0FFF7F1FEE57002230122AC
:1039100069461648FFF7F6F90028D3D0F8BD000035
:103920000000002020000020000C01405B4C4F52A2
:10393000415D204155583D25752052583D22257343
:10394000220D0A005B4C4F52415D206C696E652070
:10395000746F6F206C6F6E672C2070617274696178
:103960006C3D222573220D0A00000000FC0000209F
:103970002DE9FF4FBFB01D46DDE94D404C9E00F0E4
:1039800025FB81468B46204600F020FB04908846AC
:10399000304600F01BFB07468A46284600F016FB1F
:1039A00005460E46419800F011FB02900C464098E7
:1039B00000F00CFBCDE900013F9800F007FB024648
:1039C00004980B46CDE90C9BCDE90A0806A981E8CD
:1039D000E0040298CDE90404DDE90001CDE902012B
:1039E000CDE900230B4AC0210EA8FCF781FC00287A
:1039F0000CDDC02800DBBF2082B2C8230EA9064818
:103A0000FFF7D8F90EA905A0FFF770FE43B0BDE897
:103A1000F08F00004C480008FC0000205B4C4F5227
:103A2000412D54585D2025730000000098B0FEF72A
:103A3000DFFDFFF7DFFCFFF72DFCFFF77DFCFFF755
:103A40009BFCFFF7B5FCFFF7EFFD7AA0FFF74EFEFA
:103A500008246100142302227B48FEF717FB18B9E3
:103A600021467AA0FFF742FE641CE4B2782CF0D322
:103A70007CA0FFF73BFE00F06DF97F4C2070FFF754
:103A80004FFE7EA0FFF732FE82A0FFF72FFE2078C8
:103A900030B1A088627841088AA0FFF727FE03E0D2
:103AA00093A0A168FFF722FEFEF724FA0646FFF76F
:103AB00001FFE068301AB0F57A7FF5D30020FFF7F8
:103AC000E7FD12900120FFF7E3FD8146129840F6D2
:103AD000E441484340F6FF71B0FBF1F040F6E442A8
:103AE000139009FB02F0B0FBF1F000900020099068
:103AF00008900A900B900E900EA800F0BFF90746B0
:103B0000207810B108A800F087F90546DFF8008298
:103B1000009800F0C9FB7F4900F0ECFA414600F044
:103B2000E3F98046F5B1BDF92200FFF7CFFD4FF074
:103B3000B60B90FBFBF000F09FFB8246BDF9240022
:103B4000FFF7C4FD90FBFBF000F096FB8346BDF948
:103B50002C00FFF7BBFDC11700EB1170001100F046
:103B60008BFB03E04FF0000AD346504611902FB173
:103B70000E9800F081FB10F1FF4F00D3002014904D
:103B80004FF400616448FEF7ABF9012800D0002033
:103B900003904FF480516048FEF7A2F9012833D01A
:103BA00000224046049200F011FADDF80CC0CDE985
:103BB00002010E9BCDF814C0CDE906730098DDE933
:103BC0001223CDE9009031465448FFF78FFDEDB147
:103BD000BDF928000DF1080CBDF92E30BDF92C20DF
:103BE000BDF92A108CE80F00BDF92610BDF924009C
:103BF000CDE90001A088BDF9223041089DF82120BF
:103C00004748FFF773FD07E00122CAE7A088A268D2
:103C1000410844A0FFF76AFD1199CDF800A0CDE955
:103C200001B100231A4641461498FFF7A1FEE66051
:103C30003AE700005B4932435D207363616E207395
:103C4000746172740D0A0000600000205B49324309
:103C50005D20666F756E64203078253032580D0A0D
:103C6000000000005B4932435D207363616E206594
:103C70006E640D0A00000000000000200D0A77614C
:103C800074657220626F61726420626F6F740D0AD6
:103C9000000000005553415254313D31313532302E
:103CA0003020666F722064656275672C2055534121
:103CB0005254323D3936303020666F72204C6F528C
:103CC000610D0A00494D553A206F6E6C696E652092
:103CD000616464723D3078253032582077686F5FB8
:103CE000616D5F693D3078253032580D0A00000063
:103CF000494D553A206E6F7420666F756E6420656D
:103D000072723D30782530386C580D0A0000000082
:103D10000000C84100007A44000C0140BC47000884
:103D2000684700085B4D5055363035305D20726570
:103D30006164206661696C656420616464723D3011
:103D40007825303258206572723D30782530386CD5
:103D5000580D0A002DE9F04186B04FF000082048C8
:103D60008DF80C801F4E0068444604AFCDF810005B
:103D700037F814503223022229461B48FEF786F9F1
:103D800020B11948FEF7BCF8B0601CE0012303AA7B
:103D90007521284600F02AF8A8B9B5809DF80C00D6
:103DA000707029468DF814806425012305A88DE8DC
:103DB00029006B220C48FEF74DFB05460A48FEF72A
:103DC0009FF8B0603DB1641CE4B2022CD0D3002057
:103DD00006B0BDE8F0813220FDF780FF0120F7E753
:103DE0003C46000800000020600000203EB564242E
:103DF0008DE81C000A46014601230548FEF7FCF940
:103E000004460348FEF77CF80249886020463EBD20
:103E100060000020000000207FB5174D04460E23EF
:103E20006A463B21A888FFF7E1FF10B1002004B0EB
:103E300070BD0120207068786070BDF8000040BA45
:103E40006080BDF8020040BAA080BDF8040040BA0E
:103E5000E080BDF8060040BAE081BDF8080040BA35
:103E60002081BDF80A0040BA6081BDF80C0040BA5C
:103E7000A0810120DBE70000000000202DE9F84FC1
:103E80000025DFF860808246009598F802002E46F3
:103E90002C46A94628B9FFF743FC98F802000028F1
:103EA0001AD000276846FFF7A7FC58B1009807F121
:103EB00001072D1846EBE07604F10104FFB2E4B2ED
:103EC000032FEFD354B12246002328463146FCF796
:103ED000D1F9CAF800000120BDE8F88F88F80290F7
:103EE0000020F9E70000002070B50A460446194991
:103EF000104600F0B9FA184900F0EAF94FF07E5187
:103F000000F090F80146204600F0F4F80646134908
:103F100000F0DEF905461249304600F0D9F9314685
:103F200000F0D6F904460F49304600F0D1F9314689
:103F300000F0CEF9314600F0CBF9214600F094FABA
:103F4000294600F06FF8BDE870404FF0FF3100F0F7
:103F500036BB00000000C8410AD7A33CF6585644BF
:103F600029DC7F43856B054310B500290AD008780A
:103F7000002807D005487844FDF79CFA002801D0B6
:103F8000002010BD0248784410BD00005209000016
:103F90004A09000010B500290AD00878002807D087
:103FA00005487844FDF786FA002801D0002010BDAE
:103FB0000248784410BD0000420900003A090000A0
:103FC0000808A0F500114FEA3101704743004FEA9D
:103FD000D30C4FEA3C0C43401FBF40070CF160512B
:103FE00013F0FE4F70471CF0006F03D100200CF05F
:103FF000004170470CF0004343EA507010B540EAAE
:10400000CC0000F0E6F900BF000000924FEA00018A
:10401000FFF7D6BF4FF000414FF00000A1F500219F
:104020007047000090EA010F48BF81F0004100F1A5
:104030002282421A3CBF801A89184FEAD0524FF0B0
:104040007F4C1CEA410FA2EBD15318BF9CEA026FD0
:1040500000F03B804FF0004C4CEA00204CEA01217C
:1040600021FA03FC10EB0C0C1ED202F1FF325FEAC6
:104070001C2040EBC25038BF70471CF07F0F4FEA46
:10408000400C18BFBCF17F4F38BF7047C3F120030D
:10409000994008BF20F00100BCF17F4F38BF704746
:1040A000A0F1C04000F0DBB94FEA3C00000A40EB51
:1040B000C25028BF1CF0FF0F4FEA400CE6D018BFDB
:1040C000BCF17F4F38BF7047EAE79CEA026F05D02A
:1040D00010EA5C0F08BF00F00040704710B500F018
:1040E00078F900BF64FBBE3E014800F036BA00BF5D
:1040F0000000C07F4FF47F0C1CEAD0121EBF1CEAE8
:10410000D11392EA0C0F93EA0C0F00F0858090EA2D
:10411000010F48BF42F4807240F4000C41F40000EB
:104120002CF07F4120F07F4000B58142A2EB0302DA
:104130000FF2081CACEB504EC0F100009EF800E0FE
:104140004FEA4E0E00FB0EFC38BF49004FEA2C1C14
:1041500002F5FA020CFB0EF34FEACE1E4FEA112CC9
:104160004FEAC1210EEB635E42EB22420EFB0CFCD8
:104170004FEA1C5300FB03114FEA112C4FEA0131A7
:104180000EFB0CFC4FEADC4C00FB0C11C14228BFBB
:1041900009184CEB03335DF804EB10EB410143EBE2
:1041A000C250B2F57C0F38BF704729D512F0F00F1E
:1041B0001CBF00F1C04000F00040704700818283C6
:1041C0008485868788898B8C8D8E8F919293959626
:1041D00097999A9C9D9FA0A2A3A5A7A8AAACAEB0B0
:1041E000B2B3B5B7B9BCBEC0C2C5C7C9CCCED1D4B5
:1041F000D7D9DCDFE2E6E9ECF0F3F7FAFE000000E5
:104200004FEA400C0CF1807CBCF17E4F28BF704718
:10421000B0F1C04000F023B990EA010F0CEAD113CD
:1042200048BF42F48072624538BF634507D213F439
:104230007F0F16D080EA010000F00040704710B5F3
:1042400000F0C7F8097EFC3E00F005B880EA0100E6
:1042500000F00040704780EA010000F0004000F0EC
:10426000FEB812F47F0F04BF0248704780EA0100D5
:1042700000F0F5B80000C07F10F0004148BF404298
:10428000B0FA80F310FA03F2C3F19D030BD051EAA8
:10429000C35101EB1220530638BF704700F10100F3
:1042A00008BF20F001007047B0FA80F310FA03F263
:1042B000C3F19D030AD0D90501EB1220530638BF84
:1042C000704700F1010008BF20F0010070470000B6
:1042D0004FF47F0C1CEAD0121EBF1CEAD11392EAE5
:1042E0000C0F93EA0C0F00F0478090EA010F48BFD3
:1042F00042F480724FF0004C4CEA00204CEA01215D
:1043000002EB0302A0FB0113A2F50002002918BF73
:1043100043F001035B0028BF4FEA330342EB224224
:104320005FEA132C4CEBC2502EBFBCEB436FB2F5CF
:104330007C0F70474FEA036CBCF1004F08BF20F0C0
:104340000100B2F57C0F38BF70470BD582F0FF0239
:1043500012F5803FC8BF704700F1C040D8BF00F0E1
:104360000040704700F5000C5FEA4C0C48BF7047F6
:10437000B0F1C04000F073B890EA010F0CEAD1131D
:1043800048BF42F48072624538BF634504D280EA78
:10439000010000F00040704710B500F01AF800BFAF
:1043A0008900013E00F007B800F009B85FEA410C4F
:1043B0005FEA1C6C08D080EA010000F050B85FEAA8
:1043C000400C5FEA1C6CF6D14FF00040A0F5800075
:1043D00070470EF1020E2EF0030E5EF8044B2442DD
:1043E00004D44FEA4102B2F17F4F11D84FEA4003A3
:1043F000B3F17F4F0CD80ED14FEAD07CB2F17F4F92
:104400000CEB4C0C0CF1020C08BF4CEBD17C04E023
:104410004FF0080C01E04FEAD17C0CEB4C0324FA7E
:1044200003F404F00704B4F1040C06D20EEB840C80
:10443000BDE810404CF0010C6047DFE80CF00708C5
:1044400002024FF00040A0F5800010BD0846420077
:1044500018BFD2F1807288BF00F0004010BDFF216C
:1044600041EAD050C005704790EA010F48BF81F083
:1044700000413FF5DEAD421A04D882F00042A0EBC5
:10448000020011444FEAD0524FF07F4C1CEA410F1A
:10449000A2EBD15318BF9CEA026F4AD04FF0004CF8
:1044A0004CEA00204CEA012121FA03FCB0EB0C0C91
:1044B0000FD412F0FE0F36D05FEA4C001DD500126B
:1044C00040EBC25038BF70471CF03F0F18BF704719
:1044D0000BE0A2F101025FEA1C2040EBC25038BFA2
:1044E00070471CF07F0F18BF7047C3F1200399403D
:1044F00014BF401E20F00100704780084FEA1223CD
:1045000008BF7047B0FA80FCA2EB0C02CCF1280C7B
:1045100060FA0CF093EA122F04BF00EBC250704710
:104520004FEAC3707047130A5FEADC1008BF704798
:10453000F6E79CEA026F04D010EA5C0F08BF002087
:10454000704710B5FFF745FF40DFF63E81F00040B1
:104550007047FCF7DAB9FCF7F5BC0CF00F03092B38
:1045600008BF082000F051800A2B0BD0082B18BF81
:10457000704708BF1CF0400F0AD04FF000004FF00A
:10458000000170471CF0400F18BF4FF0004070470B
:104590001CF0100F08D020F0704300F07F4242EA78
:1045A000D3014FEA4370704700F0604021F07F4232
:1045B00042EA000201F07F4040EA727070474FF01B
:1045C000FF0212EAD0521CBF92F0FF038B42C2BF1F
:1045D000D14200EBC1507047002A0AD0002B0BD00B
:1045E000002900F00040A4BF40F0FE4040F400006D
:1045F000704700F00040704743024FF00B0C18BFAB
:104600004CF0806C7FF470AD70471CF4801F11D0AB
:104610001CF4E02F03D06FEACC31490070474FF013
:104620004050EFF3008222F0704242EA000282F32F
:10463000008870474FF0000070470000D000D200A3
:10464000010202030405060708090A0B0C0D0E0FF0
:104650001010000000000000000001020304060723
:104660000809000000000102030404000008000023
:104670000000000000020001000010000000000027
:10468000000000003031323334353637383941429A
:1046900043444546403058003031323334353637A4
:1046A0003839616263646566403078003031323396
:1046B0003435363738396162636465667870003046
:1046C0003132333435363738394142434445465820
:1046D0005000000002400000000000A000000000A8
:1046E00005400000000000C8000000000C40000071
:1046F0000000409C00000000194000000020BCBEEB
:104700000000000034400000BFC91B8E0000000400
:10471000B5400000504BCFD06607E2CF010000004B
:104720006C4100003E8251AADFEEA7340100000078
:10473000D9420000DCB5A0E23A301F97FFFFFFFF2F
:10474000B4450000FD25A0C8E9A3C14FFFFFFFFF4E
:10475000FF3F00000000008000000000FF3F00005D
:1047600000000080000000005B4D505536303530B1
:104770005D20616464723D3078253032582077685E
:104780006F3D3078253032582041583D2564204116
:10479000593D256420415A3D25642047583D2564F4
:1047A0002047593D256420475A3D25642054454DF6
:1047B000505F5241573D25640D0A00005B53454E42
:1047C000534F525D20743D256C75206D7320464C0F
:1047D0004F575F5041303D25752028256C75206D61
:1047E000562C20756E706C7567676564206D6179F5
:1047F00020666C6F617429205444535F414F3D25FE
:10480000752028256C75206D562C20252E316620AC
:1048100070706D4032354329204155583D25752033
:1048200050524553535F4F55543D257520505245C6
:1048300053535F52454144593D25752050524553CD
:10484000535F5241573D256C640D0A0077617465D2
:10485000725F6C6576656C3D252E32662C746473D0
:104860003D252E32662C746F74616C5F666C6F77B9
:104870003D252E33662C696E7374616E745F666CB1
:104880006F773D252E33662C70697463683D252E45
:1048900032662C726F6C6C3D252E32662C796177F6
:1048A0003D252E32660D0A00F44900080000002064
:1048B0002000000028010008144A00082000002001
:1048C00088070000440100081C00000043000000AD
:1048D000F8FFFFFF0C0000000E0000000F000000BA
:1048E0002E0000001001000043000000F8FFFFFF51
:1048F00000404040404040404040414141414140F3
:1049000040404040404040404040404040404040A7
:104910004005020202020202020202020202020236
:10492000022020202020202020202002020202023B
:104930000202909090909090101010101010101093
:10494000101010101010101010101010020202029F
:1049500002028888888888880808080808080808E3
:1049600008080808080808080808080802020202DF
:1049700040000000000000000000000000000000F7
:104980000000000000000000000000000000000027
:104990000000000000000000000000000000000017
:1049A0000000000000000000000000000000000007
:1049B00000000000000000000000000000000000F7
:1049C00000000000000000000000000000000000E7
:1049D00000000000000000000000000000000000D7
:1049E00000000000000000000000000000000000C7
:1049F0000000000000000000D000000000000000E7
:104A00000000000001000000100000000000000095
:044A100000127A0016
:04000005080000ED02
:00000001FF
